{
    "contractName": "AdventureParty",
    "abi": [
        {
            "inputs": [],
            "stateMutability": "nonpayable",
            "type": "constructor"
        },
        {
            "anonymous": false,
            "inputs": [
                {
                    "indexed": true,
                    "internalType": "address",
                    "name": "previousOwner",
                    "type": "address"
                },
                {
                    "indexed": true,
                    "internalType": "address",
                    "name": "newOwner",
                    "type": "address"
                }
            ],
            "name": "OwnershipTransferred",
            "type": "event"
        },
        {
            "inputs": [],
            "name": "adventureAll",
            "outputs": [],
            "stateMutability": "nonpayable",
            "type": "function"
        },
        {
            "inputs": [
                {
                    "internalType": "uint256",
                    "name": "index",
                    "type": "uint256"
                }
            ],
            "name": "adventurerAt",
            "outputs": [
                {
                    "internalType": "uint256",
                    "name": "",
                    "type": "uint256"
                }
            ],
            "stateMutability": "view",
            "type": "function"
        },
        {
            "inputs": [],
            "name": "adventurerCount",
            "outputs": [
                {
                    "internalType": "uint256",
                    "name": "",
                    "type": "uint256"
                }
            ],
            "stateMutability": "view",
            "type": "function"
        },
        {
            "inputs": [
                {
                    "internalType": "address",
                    "name": "otherParty",
                    "type": "address"
                }
            ],
            "name": "approveOtherParty",
            "outputs": [],
            "stateMutability": "nonpayable",
            "type": "function"
        },
        {
            "inputs": [],
            "name": "clearParty",
            "outputs": [],
            "stateMutability": "nonpayable",
            "type": "function"
        },
        {
            "inputs": [],
            "name": "levelUpAll",
            "outputs": [],
            "stateMutability": "nonpayable",
            "type": "function"
        },
        {
            "inputs": [
                {
                    "internalType": "address",
                    "name": "",
                    "type": "address"
                },
                {
                    "internalType": "address",
                    "name": "",
                    "type": "address"
                },
                {
                    "internalType": "uint256",
                    "name": "",
                    "type": "uint256"
                },
                {
                    "internalType": "bytes",
                    "name": "",
                    "type": "bytes"
                }
            ],
            "name": "onERC721Received",
            "outputs": [
                {
                    "internalType": "bytes4",
                    "name": "",
                    "type": "bytes4"
                }
            ],
            "stateMutability": "pure",
            "type": "function"
        },
        {
            "inputs": [],
            "name": "owner",
            "outputs": [
                {
                    "internalType": "address",
                    "name": "",
                    "type": "address"
                }
            ],
            "stateMutability": "view",
            "type": "function"
        },
        {
            "inputs": [],
            "name": "rarity",
            "outputs": [
                {
                    "internalType": "contract Rarity",
                    "name": "",
                    "type": "address"
                }
            ],
            "stateMutability": "view",
            "type": "function"
        },
        {
            "inputs": [],
            "name": "rarityGold",
            "outputs": [
                {
                    "internalType": "contract RarityGold",
                    "name": "",
                    "type": "address"
                }
            ],
            "stateMutability": "view",
            "type": "function"
        },
        {
            "inputs": [
                {
                    "internalType": "uint256[]",
                    "name": "summonerIDs",
                    "type": "uint256[]"
                }
            ],
            "name": "registerAdventurers",
            "outputs": [],
            "stateMutability": "nonpayable",
            "type": "function"
        },
        {
            "inputs": [],
            "name": "renounceOwnership",
            "outputs": [],
            "stateMutability": "nonpayable",
            "type": "function"
        },
        {
            "inputs": [
                {
                    "internalType": "uint256[]",
                    "name": "classes",
                    "type": "uint256[]"
                }
            ],
            "name": "summonMany",
            "outputs": [],
            "stateMutability": "nonpayable",
            "type": "function"
        },
        {
            "inputs": [
                {
                    "internalType": "contract AdventureParty",
                    "name": "otherParty",
                    "type": "address"
                }
            ],
            "name": "transferAllFromOtherParty",
            "outputs": [],
            "stateMutability": "nonpayable",
            "type": "function"
        },
        {
            "inputs": [
                {
                    "internalType": "address",
                    "name": "newOwner",
                    "type": "address"
                }
            ],
            "name": "transferOwnership",
            "outputs": [],
            "stateMutability": "nonpayable",
            "type": "function"
        },
        {
            "inputs": [
                {
                    "internalType": "uint256[]",
                    "name": "summonerIDs",
                    "type": "uint256[]"
                }
            ],
            "name": "unregisterAdventurers",
            "outputs": [],
            "stateMutability": "nonpayable",
            "type": "function"
        }
    ],
    "bytecode": "6080604052600180546001600160a01b031990811673ce761d788df608bd21bdd59d6f4b54b2e27f25bb1790915560028054909116732069b76afe6b734fb65d1d099e7ec64ee9cc76b217905534801561005857600080fd5b50610062336100cb565b6001805460405163a22cb46560e01b815233600482015260248101929092526001600160a01b03169063a22cb46590604401600060405180830381600087803b1580156100ae57600080fd5b505af11580156100c2573d6000803e3d6000fd5b5050505061011b565b600080546001600160a01b038381166001600160a01b0319831681178455604051919092169283917f8be0079c531659141344cd1fd0a4f28419497f9722a3daafe3b4186f6b6457e09190a35050565b61142b8061012a6000396000f3fe608060405234801561001057600080fd5b50600436106101005760003560e01c8063b2d33a7811610097578063eb57231211610066578063eb572312146101fe578063f2fde38b14610211578063f3c5d08714610224578063fef21f0f1461023757600080fd5b8063b2d33a78146101bd578063d486adcc146101d0578063dfad1b51146101e3578063e92526bf146101eb57600080fd5b80634fae4111116100d35780634fae411114610180578063715018a6146101885780638649fe86146101905780638da5cb5b1461019857600080fd5b8063150b7a02146101055780633d81b8fa1461014257806340b9033e1461014c5780634a2fc9e81461015f575b600080fd5b61012461011336600461118b565b630a85bd0160e11b95945050505050565b6040516001600160e01b031990911681526020015b60405180910390f35b61014a61024a565b005b61014a61015a36600461122a565b610371565b61017261016d3660046112ef565b6104d4565b604051908152602001610139565b61014a6104e7565b61014a6106f9565b61014a61072f565b6000546001600160a01b03165b6040516001600160a01b039091168152602001610139565b61014a6101cb366004611151565b610994565b6002546101a5906001600160a01b031681565b610172610a28565b61014a6101f936600461122a565b610a39565b61014a61020c366004611151565b610b5e565b61014a61021f366004611151565b610d72565b61014a61023236600461122a565b610e0a565b6001546101a5906001600160a01b031681565b60005b6102576003610f2e565b81101561036e576001546001600160a01b031663eed2502861027a600384610f38565b6040518263ffffffff1660e01b815260040161029891815260200190565b60206040518083038186803b1580156102b057600080fd5b505afa1580156102c4573d6000803e3d6000fd5b505050506040513d601f19601f820116820180604052508101906102e89190611308565b42111561035c576001546001600160a01b031663b00b52f161030b600384610f38565b6040518263ffffffff1660e01b815260040161032991815260200190565b600060405180830381600087803b15801561034357600080fd5b505af1158015610357573d6000803e3d6000fd5b505050505b806103668161136d565b91505061024d565b50565b6000546001600160a01b031633146103a45760405162461bcd60e51b815260040161039b90611321565b60405180910390fd5b60005b81518110156104d057600154604080516307b018ef60e01b815290516000926001600160a01b0316916307b018ef916004808301926020929190829003018186803b1580156103f557600080fd5b505afa158015610409573d6000803e3d6000fd5b505050506040513d601f19601f8201168201806040525081019061042d9190611308565b905061043a600382610f4b565b5060015483516001600160a01b039091169063035d9f2a90859085908110610464576104646113b4565b60200260200101516040518263ffffffff1660e01b815260040161048a91815260200190565b600060405180830381600087803b1580156104a457600080fd5b505af11580156104b8573d6000803e3d6000fd5b505050505080806104c89061136d565b9150506103a7565b5050565b60006104e1600383610f38565b92915050565b6000546001600160a01b031633148061058c57506000546001600160a01b03166001600160a01b0316336001600160a01b0316638da5cb5b6040518163ffffffff1660e01b815260040160206040518083038186803b15801561054957600080fd5b505afa15801561055d573d6000803e3d6000fd5b505050506040513d601f19601f82011682018060405250810190610581919061116e565b6001600160a01b0316145b6105d85760405162461bcd60e51b815260206004820152601960248201527f4f6e6c79206f776e6572206f72206f776e657220706172747900000000000000604482015260640161039b565b60005b6105e56003610f2e565b8110156106e25760015430906001600160a01b0316636352211e61060b60036000610f38565b6040518263ffffffff1660e01b815260040161062991815260200190565b60206040518083038186803b15801561064157600080fd5b505afa158015610655573d6000803e3d6000fd5b505050506040513d601f19601f82011682018060405250810190610679919061116e565b6001600160a01b031614156106d05760405162461bcd60e51b815260206004820152601e60248201527f436f6e7472616374207374696c6c2068617320616476656e7475726572730000604482015260640161039b565b806106da8161136d565b9150506105db565b506003600081816106f3828261111f565b50505050565b6000546001600160a01b031633146107235760405162461bcd60e51b815260040161039b90611321565b61072d6000610f57565b565b60005b61073c6003610f2e565b81101561036e576000610750600383610f38565b6001546040516302e2c6f960e11b8152600481018390529192506001600160a01b03169063aca10be39082906305c58df29060240160206040518083038186803b15801561079d57600080fd5b505afa1580156107b1573d6000803e3d6000fd5b505050506040513d601f19601f820116820180604052508101906107d59190611308565b6040518263ffffffff1660e01b81526004016107f391815260200190565b60206040518083038186803b15801561080b57600080fd5b505afa15801561081f573d6000803e3d6000fd5b505050506040513d601f19601f820116820180604052508101906108439190611308565b600154604051634a5b4ffd60e11b8152600481018490526001600160a01b03909116906394b69ffa9060240160206040518083038186803b15801561088757600080fd5b505afa15801561089b573d6000803e3d6000fd5b505050506040513d601f19601f820116820180604052508101906108bf9190611308565b1061098157600154604051631204928960e31b8152600481018390526001600160a01b0390911690639024944890602401600060405180830381600087803b15801561090a57600080fd5b505af115801561091e573d6000803e3d6000fd5b505060025460405163379607f560e01b8152600481018590526001600160a01b03909116925063379607f59150602401600060405180830381600087803b15801561096857600080fd5b505af115801561097c573d6000803e3d6000fd5b505050505b508061098c8161136d565b915050610732565b6000546001600160a01b031633146109be5760405162461bcd60e51b815260040161039b90611321565b6001805460405163a22cb46560e01b81526001600160a01b038481166004830152602482019390935291169063a22cb46590604401600060405180830381600087803b158015610a0d57600080fd5b505af1158015610a21573d6000803e3d6000fd5b5050505050565b6000610a346003610f2e565b905090565b6000546001600160a01b03163314610a635760405162461bcd60e51b815260040161039b90611321565b60005b81518110156104d057600154825130916001600160a01b031690636352211e90859085908110610a9857610a986113b4565b60200260200101516040518263ffffffff1660e01b8152600401610abe91815260200190565b60206040518083038186803b158015610ad657600080fd5b505afa158015610aea573d6000803e3d6000fd5b505050506040513d601f19601f82011682018060405250810190610b0e919061116e565b6001600160a01b03161415610b4c57610b4a828281518110610b3257610b326113b4565b60200260200101516003610f4b90919063ffffffff16565b505b80610b568161136d565b915050610a66565b6000546001600160a01b03163314610b885760405162461bcd60e51b815260040161039b90611321565b6000816001600160a01b031663dfad1b516040518163ffffffff1660e01b815260040160206040518083038186803b158015610bc357600080fd5b505afa158015610bd7573d6000803e3d6000fd5b505050506040513d601f19601f82011682018060405250810190610bfb9190611308565b905060005b81811015610d1a57604051630945f93d60e31b8152600481018290526000906001600160a01b03851690634a2fc9e89060240160206040518083038186803b158015610c4b57600080fd5b505afa158015610c5f573d6000803e3d6000fd5b505050506040513d601f19601f82011682018060405250810190610c839190611308565b600154604051632142170760e11b81526001600160a01b038781166004830152306024830152604482018490529293509116906342842e0e90606401600060405180830381600087803b158015610cd957600080fd5b505af1158015610ced573d6000803e3d6000fd5b50505050610d05816003610f4b90919063ffffffff16565b50508080610d129061136d565b915050610c00565b50816001600160a01b0316634fae41116040518163ffffffff1660e01b8152600401600060405180830381600087803b158015610d5657600080fd5b505af1158015610d6a573d6000803e3d6000fd5b505050505050565b6000546001600160a01b03163314610d9c5760405162461bcd60e51b815260040161039b90611321565b6001600160a01b038116610e015760405162461bcd60e51b815260206004820152602660248201527f4f776e61626c653a206e6577206f776e657220697320746865207a65726f206160448201526564647265737360d01b606482015260840161039b565b61036e81610f57565b6000546001600160a01b03163314610e345760405162461bcd60e51b815260040161039b90611321565b60005b81518110156104d057600154825130916001600160a01b031690636352211e90859085908110610e6957610e696113b4565b60200260200101516040518263ffffffff1660e01b8152600401610e8f91815260200190565b60206040518083038186803b158015610ea757600080fd5b505afa158015610ebb573d6000803e3d6000fd5b505050506040513d601f19601f82011682018060405250810190610edf919061116e565b6001600160a01b031614610f1c57610f1a828281518110610f0257610f026113b4565b60200260200101516003610fa790919063ffffffff16565b505b80610f268161136d565b915050610e37565b60006104e1825490565b6000610f448383610fb3565b9392505050565b6000610f448383610fdd565b600080546001600160a01b038381166001600160a01b0319831681178455604051919092169283917f8be0079c531659141344cd1fd0a4f28419497f9722a3daafe3b4186f6b6457e09190a35050565b6000610f44838361102c565b6000826000018281548110610fca57610fca6113b4565b9060005260206000200154905092915050565b6000818152600183016020526040812054611024575081546001818101845560008481526020808220909301849055845484825282860190935260409020919091556104e1565b5060006104e1565b60008181526001830160205260408120548015611115576000611050600183611356565b855490915060009061106490600190611356565b90508181146110c9576000866000018281548110611084576110846113b4565b90600052602060002001549050808760000184815481106110a7576110a76113b4565b6000918252602080832090910192909255918252600188019052604090208390555b85548690806110da576110da61139e565b6001900381819060005260206000200160009055905585600101600086815260200190815260200160002060009055600193505050506104e1565b60009150506104e1565b508054600082559060005260206000209081019061036e91905b8082111561114d5760008155600101611139565b5090565b60006020828403121561116357600080fd5b8135610f44816113e0565b60006020828403121561118057600080fd5b8151610f44816113e0565b6000806000806000608086880312156111a357600080fd5b85356111ae816113e0565b945060208601356111be816113e0565b935060408601359250606086013567ffffffffffffffff808211156111e257600080fd5b818801915088601f8301126111f657600080fd5b81358181111561120557600080fd5b89602082850101111561121757600080fd5b9699959850939650602001949392505050565b6000602080838503121561123d57600080fd5b823567ffffffffffffffff8082111561125557600080fd5b818501915085601f83011261126957600080fd5b81358181111561127b5761127b6113ca565b8060051b604051601f19603f830116810181811085821117156112a0576112a06113ca565b604052828152858101935084860182860187018a10156112bf57600080fd5b600095505b838610156112e25780358552600195909501949386019386016112c4565b5098975050505050505050565b60006020828403121561130157600080fd5b5035919050565b60006020828403121561131a57600080fd5b5051919050565b6020808252818101527f4f776e61626c653a2063616c6c6572206973206e6f7420746865206f776e6572604082015260600190565b60008282101561136857611368611388565b500390565b600060001982141561138157611381611388565b5060010190565b634e487b7160e01b600052601160045260246000fd5b634e487b7160e01b600052603160045260246000fd5b634e487b7160e01b600052603260045260246000fd5b634e487b7160e01b600052604160045260246000fd5b6001600160a01b038116811461036e57600080fdfea26469706673582212204ddd68ee90701b4d96b13abe24d944ca1691f9b03e45b4b3b9be4b73325831ff64736f6c63430008070033",
    "sourcePath": "c:/_project_ratity/adventure-party/contracts/AdventureParty.sol",
    "compiler": {
        "name": "solc",
        "version": "0.8.7+commit.e28d00a7"
    },
    "functionHashes": {
        "adventureAll()": "3d81b8fa",
        "adventurerAt(uint256)": "4a2fc9e8",
        "adventurerCount()": "dfad1b51",
        "approveOtherParty(address)": "b2d33a78",
        "clearParty()": "4fae4111",
        "levelUpAll()": "8649fe86",
        "onERC721Received(address,address,uint256,bytes)": "150b7a02",
        "owner()": "8da5cb5b",
        "rarity()": "fef21f0f",
        "rarityGold()": "d486adcc",
        "registerAdventurers(uint256[])": "e92526bf",
        "renounceOwnership()": "715018a6",
        "summonMany(uint256[])": "40b9033e",
        "transferAllFromOtherParty(address)": "eb572312",
        "transferOwnership(address)": "f2fde38b",
        "unregisterAdventurers(uint256[])": "f3c5d087"
    },
    "gasEstimates": {
        "creation": {
            "codeDepositCost": "1032600",
            "executionCost": "infinite",
            "totalCost": "infinite"
        },
        "external": {
            "adventureAll()": "infinite",
            "adventurerAt(uint256)": "4763",
            "adventurerCount()": "2437",
            "approveOtherParty(address)": "infinite",
            "clearParty()": "infinite",
            "levelUpAll()": "infinite",
            "onERC721Received(address,address,uint256,bytes)": "infinite",
            "owner()": "2409",
            "rarity()": "2425",
            "rarityGold()": "2382",
            "registerAdventurers(uint256[])": "infinite",
            "renounceOwnership()": "28159",
            "summonMany(uint256[])": "infinite",
            "transferAllFromOtherParty(address)": "infinite",
            "transferOwnership(address)": "infinite",
            "unregisterAdventurers(uint256[])": "infinite"
        }
    }
}